{
  "contractName": "HTLC",
  "abi": [
    {
      "anonymous": false,
      "inputs": [
        {
          "indexed": false,
          "internalType": "uint256",
          "name": "_currentTransactionId",
          "type": "uint256"
        }
      ],
      "name": "fundReceived",
      "type": "event"
    },
    {
      "anonymous": false,
      "inputs": [
        {
          "indexed": false,
          "internalType": "bool",
          "name": "_completed",
          "type": "bool"
        }
      ],
      "name": "transactionCompleted",
      "type": "event"
    },
    {
      "anonymous": false,
      "inputs": [
        {
          "indexed": false,
          "internalType": "bool",
          "name": "_refunded",
          "type": "bool"
        }
      ],
      "name": "transactionRefunded",
      "type": "event"
    },
    {
      "constant": true,
      "inputs": [
        {
          "internalType": "uint256",
          "name": "",
          "type": "uint256"
        }
      ],
      "name": "transactions",
      "outputs": [
        {
          "internalType": "uint256",
          "name": "transactionId",
          "type": "uint256"
        },
        {
          "internalType": "uint256",
          "name": "amountFunded",
          "type": "uint256"
        },
        {
          "internalType": "uint256",
          "name": "amountExpected",
          "type": "uint256"
        },
        {
          "internalType": "address payable",
          "name": "owner",
          "type": "address"
        },
        {
          "internalType": "address payable",
          "name": "recipient",
          "type": "address"
        },
        {
          "internalType": "address payable",
          "name": "expectedAddress",
          "type": "address"
        },
        {
          "internalType": "uint256",
          "name": "startTime",
          "type": "uint256"
        },
        {
          "internalType": "uint256",
          "name": "lockTime",
          "type": "uint256"
        },
        {
          "internalType": "string",
          "name": "secret",
          "type": "string"
        },
        {
          "internalType": "bytes32",
          "name": "secretHash",
          "type": "bytes32"
        },
        {
          "internalType": "bool",
          "name": "completed",
          "type": "bool"
        },
        {
          "internalType": "bool",
          "name": "refunded",
          "type": "bool"
        }
      ],
      "payable": false,
      "stateMutability": "view",
      "type": "function"
    },
    {
      "constant": false,
      "inputs": [
        {
          "internalType": "address payable",
          "name": "_recipient",
          "type": "address"
        },
        {
          "internalType": "bytes32",
          "name": "_secretHash",
          "type": "bytes32"
        },
        {
          "internalType": "address payable",
          "name": "_expectedAddress",
          "type": "address"
        },
        {
          "internalType": "uint256",
          "name": "_lockTime",
          "type": "uint256"
        },
        {
          "internalType": "uint256",
          "name": "_amountExpected",
          "type": "uint256"
        }
      ],
      "name": "sendFunds",
      "outputs": [],
      "payable": true,
      "stateMutability": "payable",
      "type": "function"
    },
    {
      "constant": true,
      "inputs": [
        {
          "internalType": "uint256",
          "name": "_transactionId",
          "type": "uint256"
        }
      ],
      "name": "getAmountDetails",
      "outputs": [
        {
          "internalType": "uint256",
          "name": "amountFunded",
          "type": "uint256"
        },
        {
          "internalType": "uint256",
          "name": "amountExpected",
          "type": "uint256"
        }
      ],
      "payable": false,
      "stateMutability": "view",
      "type": "function"
    },
    {
      "constant": true,
      "inputs": [
        {
          "internalType": "uint256",
          "name": "_transactionId",
          "type": "uint256"
        }
      ],
      "name": "getTimeLockDetails",
      "outputs": [
        {
          "internalType": "uint256",
          "name": "startTime",
          "type": "uint256"
        },
        {
          "internalType": "uint256",
          "name": "lockTime",
          "type": "uint256"
        }
      ],
      "payable": false,
      "stateMutability": "view",
      "type": "function"
    },
    {
      "constant": true,
      "inputs": [
        {
          "internalType": "uint256",
          "name": "_transactionId",
          "type": "uint256"
        }
      ],
      "name": "getAddressDetails",
      "outputs": [
        {
          "internalType": "address payable",
          "name": "owner",
          "type": "address"
        },
        {
          "internalType": "address payable",
          "name": "recipient",
          "type": "address"
        },
        {
          "internalType": "address payable",
          "name": "expectedAddress",
          "type": "address"
        }
      ],
      "payable": false,
      "stateMutability": "view",
      "type": "function"
    },
    {
      "constant": true,
      "inputs": [
        {
          "internalType": "uint256",
          "name": "_transactionId",
          "type": "uint256"
        }
      ],
      "name": "getSecretDetails",
      "outputs": [
        {
          "internalType": "string",
          "name": "secret",
          "type": "string"
        },
        {
          "internalType": "bytes32",
          "name": "secretHash",
          "type": "bytes32"
        }
      ],
      "payable": false,
      "stateMutability": "view",
      "type": "function"
    },
    {
      "constant": true,
      "inputs": [
        {
          "internalType": "uint256",
          "name": "_transactionId",
          "type": "uint256"
        }
      ],
      "name": "getStatusDetails",
      "outputs": [
        {
          "internalType": "bool",
          "name": "completed",
          "type": "bool"
        },
        {
          "internalType": "bool",
          "name": "refunded",
          "type": "bool"
        }
      ],
      "payable": false,
      "stateMutability": "view",
      "type": "function"
    },
    {
      "constant": false,
      "inputs": [
        {
          "internalType": "uint256",
          "name": "_transactionId",
          "type": "uint256"
        },
        {
          "internalType": "string",
          "name": "_secret",
          "type": "string"
        },
        {
          "internalType": "uint256",
          "name": "finality_time",
          "type": "uint256"
        }
      ],
      "name": "withdraw",
      "outputs": [],
      "payable": false,
      "stateMutability": "nonpayable",
      "type": "function"
    },
    {
      "constant": false,
      "inputs": [
        {
          "internalType": "uint256",
          "name": "_transactionId",
          "type": "uint256"
        }
      ],
      "name": "refund",
      "outputs": [],
      "payable": false,
      "stateMutability": "nonpayable",
      "type": "function"
    }
  ],
  "bytecode": "0x60806040526000805534801561001457600080fd5b5061200c806100246000396000f3fe6080604052600436106100865760003560e01c80633f70c165116100595780633f70c1651461027a5780634723ff3d146103355780634c76de371461038b5780636fb30061146103e95780639ace38c2146104ca57610086565b8063060e94441461008b578063265465a214610167578063278ecde1146101bd5780632cdf1507146101f8575b600080fd5b34801561009757600080fd5b50610165600480360360608110156100ae57600080fd5b8101908080359060200190929190803590602001906401000000008111156100d557600080fd5b8201836020820111156100e757600080fd5b8035906020019184600183028401116401000000008311171561010957600080fd5b91908080601f016020809104026020016040519081016040528093929190818152602001838380828437600081840152601f19601f82011690508083019250505050505050919291929080359060200190929190505050610657565b005b34801561017357600080fd5b506101a06004803603602081101561018a57600080fd5b8101908080359060200190929190505050610b5f565b604051808381526020018281526020019250505060405180910390f35b3480156101c957600080fd5b506101f6600480360360208110156101e057600080fd5b8101908080359060200190929190505050610d2b565b005b610278600480360360a081101561020e57600080fd5b81019080803573ffffffffffffffffffffffffffffffffffffffff16906020019092919080359060200190929190803573ffffffffffffffffffffffffffffffffffffffff169060200190929190803590602001909291908035906020019092919050505061116a565b005b34801561028657600080fd5b506102b36004803603602081101561029d57600080fd5b8101908080359060200190929190505050611465565b6040518080602001838152602001828103825284818151815260200191508051906020019080838360005b838110156102f95780820151818401526020810190506102de565b50505050905090810190601f1680156103265780820380516001836020036101000a031916815260200191505b50935050505060405180910390f35b34801561034157600080fd5b5061036e6004803603602081101561035857600080fd5b81019080803590602001909291905050506116cd565b604051808381526020018281526020019250505060405180910390f35b34801561039757600080fd5b506103c4600480360360208110156103ae57600080fd5b8101908080359060200190929190505050611899565b6040518083151515158152602001821515151581526020019250505060405180910390f35b3480156103f557600080fd5b506104226004803603602081101561040c57600080fd5b8101908080359060200190929190505050611a7f565b604051808473ffffffffffffffffffffffffffffffffffffffff1673ffffffffffffffffffffffffffffffffffffffff1681526020018373ffffffffffffffffffffffffffffffffffffffff1673ffffffffffffffffffffffffffffffffffffffff1681526020018273ffffffffffffffffffffffffffffffffffffffff1673ffffffffffffffffffffffffffffffffffffffff168152602001935050505060405180910390f35b3480156104d657600080fd5b50610503600480360360208110156104ed57600080fd5b8101908080359060200190929190505050611cc8565b604051808d81526020018c81526020018b81526020018a73ffffffffffffffffffffffffffffffffffffffff1673ffffffffffffffffffffffffffffffffffffffff1681526020018973ffffffffffffffffffffffffffffffffffffffff1673ffffffffffffffffffffffffffffffffffffffff1681526020018873ffffffffffffffffffffffffffffffffffffffff1673ffffffffffffffffffffffffffffffffffffffff168152602001878152602001868152602001806020018581526020018415151515815260200183151515158152602001828103825286818151815260200191508051906020019080838360005b838110156106115780820151818401526020810190506105f6565b50505050905090810190601f16801561063e5780820380516001836020036101000a031916815260200191505b509d505050505050505050505050505060405180910390f35b60005483106106ce576040517f08c379a00000000000000000000000000000000000000000000000000000000081526004018080602001828103825260168152602001807f496e76616c6964205472616e73616374696f6e2049640000000000000000000081525060200191505060405180910390fd5b6001600084815260200190815260200160002060040160009054906101000a900473ffffffffffffffffffffffffffffffffffffffff1673ffffffffffffffffffffffffffffffffffffffff163373ffffffffffffffffffffffffffffffffffffffff16148061079f57506001600084815260200190815260200160002060050160009054906101000a900473ffffffffffffffffffffffffffffffffffffffff1673ffffffffffffffffffffffffffffffffffffffff163373ffffffffffffffffffffffffffffffffffffffff16145b610811576040517f08c379a00000000000000000000000000000000000000000000000000000000081526004018080602001828103825260168152602001807f596f7520617265206e6f7420417574686f72697365640000000000000000000081525060200191505060405180910390fd5b6000151560016000858152602001908152602001600020600a0160009054906101000a900460ff16151514610891576040517f08c379a000000000000000000000000000000000000000000000000000000000815260040180806020018281038252602c815260200180611f8b602c913960400191505060405180910390fd5b8042016001600085815260200190815260200160002060070154600160008681526020019081526020016000206006015401101561091a576040517f08c379a0000000000000000000000000000000000000000000000000000000008152600401808060200182810382526021815260200180611fb76021913960400191505060405180910390fd5b6001600084815260200190815260200160002060090154826040516020018082805190602001908083835b602083106109685780518252602082019150602081019050602083039250610945565b6001836020036101000a0380198251168184511680821785525050505050509050019150506040516020818303038152906040528051906020012014610a16576040517f08c379a00000000000000000000000000000000000000000000000000000000081526004018080602001828103825260108152602001807f57726f6e6720536563726574204b65790000000000000000000000000000000081525060200191505060405180910390fd5b81600160008581526020019081526020016000206008019080519060200190610a40929190611e3a565b506001600084815260200190815260200160002060040160009054906101000a900473ffffffffffffffffffffffffffffffffffffffff1673ffffffffffffffffffffffffffffffffffffffff166108fc60016000868152602001908152602001600020600101549081150290604051600060405180830381858888f19350505050158015610ad3573d6000803e3d6000fd5b506001806000858152602001908152602001600020600a0160006101000a81548160ff021916908315150217905550600060016000858152602001908152602001600020600101819055507f3054657d3abf70005d12ae4cbf5b072c366e5b2170d6672e86fd3d7b0f3c96f56001604051808215151515815260200191505060405180910390a1505050565b6000803373ffffffffffffffffffffffffffffffffffffffff166001600085815260200190815260200160002060030160009054906101000a900473ffffffffffffffffffffffffffffffffffffffff1673ffffffffffffffffffffffffffffffffffffffff161480610c3357503373ffffffffffffffffffffffffffffffffffffffff166001600085815260200190815260200160002060040160009054906101000a900473ffffffffffffffffffffffffffffffffffffffff1673ffffffffffffffffffffffffffffffffffffffff16145b80610c9f57503373ffffffffffffffffffffffffffffffffffffffff166001600085815260200190815260200160002060050160009054906101000a900473ffffffffffffffffffffffffffffffffffffffff1673ffffffffffffffffffffffffffffffffffffffff16145b610cf4576040517f08c379a000000000000000000000000000000000000000000000000000000000815260040180806020018281038252602b815260200180611f60602b913960400191505060405180910390fd5b6001600084815260200190815260200160002060060154600160008581526020019081526020016000206007015491509150915091565b3373ffffffffffffffffffffffffffffffffffffffff166001600083815260200190815260200160002060030160009054906101000a900473ffffffffffffffffffffffffffffffffffffffff1673ffffffffffffffffffffffffffffffffffffffff1614610e02576040517f08c379a00000000000000000000000000000000000000000000000000000000081526004018080602001828103825260168152602001807f596f7520617265206e6f7420417574686f72697365640000000000000000000081525060200191505060405180910390fd5b6000151560016000838152602001908152602001600020600a0160009054906101000a900460ff16151514610e82576040517f08c379a000000000000000000000000000000000000000000000000000000000815260040180806020018281038252602c815260200180611f8b602c913960400191505060405180910390fd5b6000151560016000838152602001908152602001600020600a0160019054906101000a900460ff16151514610f1f576040517f08c379a000000000000000000000000000000000000000000000000000000000815260040180806020018281038252601c8152602001807f5472616e73616374696f6e20616c726561647920726566756e6465640000000081525060200191505060405180910390fd5b6000600160008381526020019081526020016000206001015411610fab576040517f08c379a00000000000000000000000000000000000000000000000000000000081526004018080602001828103825260108152602001807f4e6f7420656e6f7567682066756e64730000000000000000000000000000000081525060200191505060405180910390fd5b4260016000838152602001908152602001600020600701546001600084815260200190815260200160002060060154011061104e576040517f08c379a00000000000000000000000000000000000000000000000000000000081526004018080602001828103825260208152602001807f546f6f204561726c7920666f7220696e6974696174696e6720526566756e647381525060200191505060405180910390fd5b6001600082815260200190815260200160002060030160009054906101000a900473ffffffffffffffffffffffffffffffffffffffff1673ffffffffffffffffffffffffffffffffffffffff166108fc60016000848152602001908152602001600020600101549081150290604051600060405180830381858888f193505050501580156110e0573d6000803e3d6000fd5b50600060016000838152602001908152602001600020600101819055506001806000838152602001908152602001600020600a0160016101000a81548160ff0219169083151502179055507fbc97d926f16cbde49503267e90a7387affb1e0ba13e81f48bcce47803bbb52106001604051808215151515815260200191505060405180910390a150565b600034116111e0576040517f08c379a000000000000000000000000000000000000000000000000000000000815260040180806020018281038252600d8152602001807f4e6f206d6f6e65792053656e740000000000000000000000000000000000000081525060200191505060405180910390fd5b60405180610180016040528060005481526020013481526020018281526020013373ffffffffffffffffffffffffffffffffffffffff1681526020018673ffffffffffffffffffffffffffffffffffffffff1681526020018473ffffffffffffffffffffffffffffffffffffffff16815260200142815260200183815260200160405180602001604052806000815250815260200185815260200160001515815260200160001515815250600160008054815260200190815260200160002060008201518160000155602082015181600101556040820151816002015560608201518160030160006101000a81548173ffffffffffffffffffffffffffffffffffffffff021916908373ffffffffffffffffffffffffffffffffffffffff16021790555060808201518160040160006101000a81548173ffffffffffffffffffffffffffffffffffffffff021916908373ffffffffffffffffffffffffffffffffffffffff16021790555060a08201518160050160006101000a81548173ffffffffffffffffffffffffffffffffffffffff021916908373ffffffffffffffffffffffffffffffffffffffff16021790555060c0820151816006015560e082015181600701556101008201518160080190805190602001906113c3929190611eba565b50610120820151816009015561014082015181600a0160006101000a81548160ff02191690831515021790555061016082015181600a0160016101000a81548160ff0219169083151502179055509050507fa5c0e5d7d1adf8b31bfb34b85bd4e331990de7e35ad13af203a4b3847300a2406000546040518082815260200191505060405180910390a160008081548092919060010191905055505050505050565b606060003373ffffffffffffffffffffffffffffffffffffffff166001600085815260200190815260200160002060030160009054906101000a900473ffffffffffffffffffffffffffffffffffffffff1673ffffffffffffffffffffffffffffffffffffffff16148061153a57503373ffffffffffffffffffffffffffffffffffffffff166001600085815260200190815260200160002060040160009054906101000a900473ffffffffffffffffffffffffffffffffffffffff1673ffffffffffffffffffffffffffffffffffffffff16145b806115a657503373ffffffffffffffffffffffffffffffffffffffff166001600085815260200190815260200160002060050160009054906101000a900473ffffffffffffffffffffffffffffffffffffffff1673ffffffffffffffffffffffffffffffffffffffff16145b6115fb576040517f08c379a000000000000000000000000000000000000000000000000000000000815260040180806020018281038252602b815260200180611f60602b913960400191505060405180910390fd5b600160008481526020019081526020016000206008016001600085815260200190815260200160002060090154818054600181600116156101000203166002900480601f0160208091040260200160405190810160405280929190818152602001828054600181600116156101000203166002900480156116bd5780601f10611692576101008083540402835291602001916116bd565b820191906000526020600020905b8154815290600101906020018083116116a057829003601f168201915b5050505050915091509150915091565b6000803373ffffffffffffffffffffffffffffffffffffffff166001600085815260200190815260200160002060030160009054906101000a900473ffffffffffffffffffffffffffffffffffffffff1673ffffffffffffffffffffffffffffffffffffffff1614806117a157503373ffffffffffffffffffffffffffffffffffffffff166001600085815260200190815260200160002060040160009054906101000a900473ffffffffffffffffffffffffffffffffffffffff1673ffffffffffffffffffffffffffffffffffffffff16145b8061180d57503373ffffffffffffffffffffffffffffffffffffffff166001600085815260200190815260200160002060050160009054906101000a900473ffffffffffffffffffffffffffffffffffffffff1673ffffffffffffffffffffffffffffffffffffffff16145b611862576040517f08c379a000000000000000000000000000000000000000000000000000000000815260040180806020018281038252602b815260200180611f60602b913960400191505060405180910390fd5b6001600084815260200190815260200160002060010154600160008581526020019081526020016000206002015491509150915091565b6000803373ffffffffffffffffffffffffffffffffffffffff166001600085815260200190815260200160002060030160009054906101000a900473ffffffffffffffffffffffffffffffffffffffff1673ffffffffffffffffffffffffffffffffffffffff16148061196d57503373ffffffffffffffffffffffffffffffffffffffff166001600085815260200190815260200160002060040160009054906101000a900473ffffffffffffffffffffffffffffffffffffffff1673ffffffffffffffffffffffffffffffffffffffff16145b806119d957503373ffffffffffffffffffffffffffffffffffffffff166001600085815260200190815260200160002060050160009054906101000a900473ffffffffffffffffffffffffffffffffffffffff1673ffffffffffffffffffffffffffffffffffffffff16145b611a2e576040517f08c379a000000000000000000000000000000000000000000000000000000000815260040180806020018281038252602b815260200180611f60602b913960400191505060405180910390fd5b60016000848152602001908152602001600020600a0160009054906101000a900460ff1660016000858152602001908152602001600020600a0160019054906101000a900460ff1691509150915091565b60008060003373ffffffffffffffffffffffffffffffffffffffff166001600086815260200190815260200160002060030160009054906101000a900473ffffffffffffffffffffffffffffffffffffffff1673ffffffffffffffffffffffffffffffffffffffff161480611b5557503373ffffffffffffffffffffffffffffffffffffffff166001600086815260200190815260200160002060040160009054906101000a900473ffffffffffffffffffffffffffffffffffffffff1673ffffffffffffffffffffffffffffffffffffffff16145b80611bc157503373ffffffffffffffffffffffffffffffffffffffff166001600086815260200190815260200160002060050160009054906101000a900473ffffffffffffffffffffffffffffffffffffffff1673ffffffffffffffffffffffffffffffffffffffff16145b611c16576040517f08c379a000000000000000000000000000000000000000000000000000000000815260040180806020018281038252602b815260200180611f60602b913960400191505060405180910390fd5b6001600085815260200190815260200160002060030160009054906101000a900473ffffffffffffffffffffffffffffffffffffffff166001600086815260200190815260200160002060040160009054906101000a900473ffffffffffffffffffffffffffffffffffffffff166001600087815260200190815260200160002060050160009054906101000a900473ffffffffffffffffffffffffffffffffffffffff169250925092509193909250565b60016020528060005260406000206000915090508060000154908060010154908060020154908060030160009054906101000a900473ffffffffffffffffffffffffffffffffffffffff16908060040160009054906101000a900473ffffffffffffffffffffffffffffffffffffffff16908060050160009054906101000a900473ffffffffffffffffffffffffffffffffffffffff1690806006015490806007015490806008018054600181600116156101000203166002900480601f016020809104026020016040519081016040528092919081815260200182805460018160011615610100020316600290048015611e045780601f10611dd957610100808354040283529160200191611e04565b820191906000526020600020905b815481529060010190602001808311611de757829003601f168201915b50505050509080600901549080600a0160009054906101000a900460ff169080600a0160019054906101000a900460ff1690508c565b828054600181600116156101000203166002900490600052602060002090601f016020900481019282601f10611e7b57805160ff1916838001178555611ea9565b82800160010185558215611ea9579182015b82811115611ea8578251825591602001919060010190611e8d565b5b509050611eb69190611f3a565b5090565b828054600181600116156101000203166002900490600052602060002090601f016020900481019282601f10611efb57805160ff1916838001178555611f29565b82800160010185558215611f29579182015b82811115611f28578251825591602001919060010190611f0d565b5b509050611f369190611f3a565b5090565b611f5c91905b80821115611f58576000816000905550600101611f40565b5090565b9056fe596f7520617265206e6f7420417574686f72697a656420746f20676574207468652044657461696c7320215472616e73616374696f6e20616c726561647920636f6d706c65746564207375636365737366756c6c7920214e6f7720796f752063616e206f6e6c792061736b20666f7220526566756e64732ea265627a7a72315820d5331d64f7569c4f43aa9df114c1a3b60aa25e9ae30772dabf25fac8c1995ad264736f6c63430005100032",
  "source": "pragma solidity >=0.4.25 <0.7.0;\r\n\r\ncontract HTLC {\r\n\tstruct transaction {\r\n\t\tuint transactionId;\r\n\t\tuint amountFunded;\r\n\t\tuint amountExpected;\r\n\t\taddress payable owner;\r\n\t\taddress payable recipient;\r\n\t\taddress payable expectedAddress;\r\n\t\tuint startTime;\r\n\t\tuint lockTime;\r\n\t\tstring secret; \r\n\t\tbytes32 secretHash;\r\n\t\tbool completed;\r\n\t\tbool refunded;\r\n\t}\r\n\t\r\n\tuint currentTransactionId = 0;\r\n\tmapping(uint => transaction) public transactions;\r\n\tevent fundReceived(uint _currentTransactionId);\r\n\tevent transactionCompleted(bool _completed);\r\n\tevent transactionRefunded(bool _refunded);\r\n\r\n\tfunction sendFunds(address payable _recipient, bytes32 _secretHash, address payable _expectedAddress, uint _lockTime, uint _amountExpected) public payable {\r\n\t\trequire(msg.value>0,\"No money Sent\");\r\n        transactions[currentTransactionId] = transaction(currentTransactionId, msg.value, _amountExpected, msg.sender, _recipient, _expectedAddress, block.timestamp, _lockTime , \"\" , _secretHash, false, false);\r\n        emit fundReceived(currentTransactionId);\r\n        currentTransactionId++;\r\n\t}\r\n\r\n\tfunction getAmountDetails(uint _transactionId) public view returns (uint amountFunded, uint amountExpected) {\r\n\t\trequire(transactions[_transactionId].owner == msg.sender || transactions[_transactionId].recipient == msg.sender || transactions[_transactionId].expectedAddress == msg.sender,\"You are not Authorized to get the Details !\" );\r\n\t\treturn(transactions[_transactionId].amountFunded, transactions[_transactionId].amountExpected );\r\n\t}\r\n\t\r\n\tfunction getTimeLockDetails(uint _transactionId) public view returns (uint startTime, uint lockTime) {\r\n\t\trequire(transactions[_transactionId].owner == msg.sender || transactions[_transactionId].recipient == msg.sender || transactions[_transactionId].expectedAddress == msg.sender,\"You are not Authorized to get the Details !\" );\r\n\t\treturn(transactions[_transactionId].startTime, transactions[_transactionId].lockTime);\r\n\t}\r\n\t\r\n\tfunction getAddressDetails(uint _transactionId) public view returns (address payable owner, address payable recipient, address payable expectedAddress) {\r\n\t\trequire(transactions[_transactionId].owner == msg.sender || transactions[_transactionId].recipient == msg.sender || transactions[_transactionId].expectedAddress == msg.sender,\"You are not Authorized to get the Details !\" );\r\n\t\treturn(transactions[_transactionId].owner, transactions[_transactionId].recipient, transactions[_transactionId].expectedAddress);\r\n\t}\r\n\t\r\n\tfunction getSecretDetails(uint _transactionId) public view returns (string memory secret, bytes32 secretHash) {\r\n\t\trequire(transactions[_transactionId].owner == msg.sender || transactions[_transactionId].recipient == msg.sender || transactions[_transactionId].expectedAddress == msg.sender,\"You are not Authorized to get the Details !\" );\r\n\t\treturn(transactions[_transactionId].secret, transactions[_transactionId].secretHash);\r\n\t}\r\n\t\r\n\tfunction getStatusDetails(uint _transactionId) public view returns (bool completed, bool refunded) {\r\n\t\trequire(transactions[_transactionId].owner == msg.sender || transactions[_transactionId].recipient == msg.sender || transactions[_transactionId].expectedAddress == msg.sender,\"You are not Authorized to get the Details !\" );\r\n\t\treturn(transactions[_transactionId].completed, transactions[_transactionId].refunded);\r\n\t}\r\n\t\r\n\tfunction withdraw(uint _transactionId, string memory _secret, uint finality_time) public {\r\n\t\trequire(_transactionId < currentTransactionId, \"Invalid Transaction Id\");\r\n\t\trequire(msg.sender == transactions[_transactionId].recipient || msg.sender == transactions[_transactionId].expectedAddress, \"You are not Authorised\");\r\n        require(transactions[_transactionId].completed==false,\"Transaction already completed successfully !\");\r\n        require(transactions[_transactionId].startTime + transactions[_transactionId].lockTime >= now + finality_time,\"Now you can only ask for Refunds.\");\r\n\t\trequire(keccak256(abi.encodePacked(_secret)) == transactions[_transactionId].secretHash, 'Wrong Secret Key');\r\n\t\t\r\n\t\ttransactions[_transactionId].secret = _secret;\r\n        transactions[_transactionId].recipient.transfer(transactions[_transactionId].amountFunded);\r\n        transactions[_transactionId].completed = true;\r\n        transactions[_transactionId].amountFunded = 0;\r\n\r\n\t\temit transactionCompleted(true);\r\n\t} \r\n\r\n\tfunction refund(uint _transactionId) public { \r\n\t\trequire(transactions[_transactionId].owner==msg.sender, \"You are not Authorised\");\r\n        require(transactions[_transactionId].completed==false,\"Transaction already completed successfully !\");\r\n        require(transactions[_transactionId].refunded==false,\"Transaction already refunded\");\r\n        require(transactions[_transactionId].amountFunded > 0,\"Not enough funds\");\r\n        require(transactions[_transactionId].startTime + transactions[_transactionId].lockTime < now ,\"Too Early for initiating Refunds\");\r\n        \r\n\t\ttransactions[_transactionId].owner.transfer(transactions[_transactionId].amountFunded);\r\n        transactions[_transactionId].amountFunded = 0;\r\n        transactions[_transactionId].refunded = true;\r\n\t\t\r\n\t\temit transactionRefunded(true);\r\n\t}\r\n}",
  "sourcePath": "C:/Users/jain/Desktop/Blockchain Stuff/HTLC/contracts/HTLC.sol",
  "compiler": {
    "name": "solc",
    "version": "0.5.16+commit.9c3226ce.Emscripten.clang"
  },
  "schemaVersion": "3.3.3",
  "updatedAt": "2021-03-25T13:59:16.603Z",
  "networkType": "ethereum",
  "devdoc": {
    "methods": {}
  },
  "userdoc": {
    "methods": {}
  }
}