{
  "contractName": "HTLC",
  "abi": [
    {
      "anonymous": false,
      "inputs": [
        {
          "indexed": false,
          "internalType": "uint256",
          "name": "_currentTransactionId",
          "type": "uint256"
        }
      ],
      "name": "fundReceived",
      "type": "event"
    },
    {
      "anonymous": false,
      "inputs": [
        {
          "indexed": false,
          "internalType": "bool",
          "name": "_completed",
          "type": "bool"
        }
      ],
      "name": "transactionCompleted",
      "type": "event"
    },
    {
      "anonymous": false,
      "inputs": [
        {
          "indexed": false,
          "internalType": "bool",
          "name": "_refunded",
          "type": "bool"
        }
      ],
      "name": "transactionRefunded",
      "type": "event"
    },
    {
      "constant": true,
      "inputs": [
        {
          "internalType": "uint256",
          "name": "",
          "type": "uint256"
        }
      ],
      "name": "transactions",
      "outputs": [
        {
          "internalType": "uint256",
          "name": "transactionId",
          "type": "uint256"
        },
        {
          "internalType": "uint256",
          "name": "amountFunded",
          "type": "uint256"
        },
        {
          "internalType": "uint256",
          "name": "amountExpected",
          "type": "uint256"
        },
        {
          "internalType": "address payable",
          "name": "owner",
          "type": "address"
        },
        {
          "internalType": "address payable",
          "name": "recipient",
          "type": "address"
        },
        {
          "internalType": "address payable",
          "name": "expectedAddress",
          "type": "address"
        },
        {
          "internalType": "uint256",
          "name": "startTime",
          "type": "uint256"
        },
        {
          "internalType": "uint256",
          "name": "lockTime",
          "type": "uint256"
        },
        {
          "internalType": "string",
          "name": "secret",
          "type": "string"
        },
        {
          "internalType": "bytes32",
          "name": "secretHash",
          "type": "bytes32"
        },
        {
          "internalType": "bool",
          "name": "completed",
          "type": "bool"
        },
        {
          "internalType": "bool",
          "name": "refunded",
          "type": "bool"
        }
      ],
      "payable": false,
      "stateMutability": "view",
      "type": "function"
    },
    {
      "constant": false,
      "inputs": [
        {
          "internalType": "address payable",
          "name": "_recipient",
          "type": "address"
        },
        {
          "internalType": "bytes32",
          "name": "_secretHash",
          "type": "bytes32"
        },
        {
          "internalType": "address payable",
          "name": "_expectedAddress",
          "type": "address"
        },
        {
          "internalType": "uint256",
          "name": "_lockTime",
          "type": "uint256"
        },
        {
          "internalType": "uint256",
          "name": "_amountExpected",
          "type": "uint256"
        }
      ],
      "name": "sendFunds",
      "outputs": [],
      "payable": true,
      "stateMutability": "payable",
      "type": "function"
    },
    {
      "constant": true,
      "inputs": [
        {
          "internalType": "uint256",
          "name": "_transactionId",
          "type": "uint256"
        }
      ],
      "name": "getAmountDetails",
      "outputs": [
        {
          "internalType": "uint256",
          "name": "amountFunded",
          "type": "uint256"
        },
        {
          "internalType": "uint256",
          "name": "amountExpected",
          "type": "uint256"
        }
      ],
      "payable": false,
      "stateMutability": "view",
      "type": "function"
    },
    {
      "constant": true,
      "inputs": [
        {
          "internalType": "uint256",
          "name": "_transactionId",
          "type": "uint256"
        }
      ],
      "name": "getTimeLockDetails",
      "outputs": [
        {
          "internalType": "uint256",
          "name": "startTime",
          "type": "uint256"
        },
        {
          "internalType": "uint256",
          "name": "lockTime",
          "type": "uint256"
        }
      ],
      "payable": false,
      "stateMutability": "view",
      "type": "function"
    },
    {
      "constant": true,
      "inputs": [
        {
          "internalType": "uint256",
          "name": "_transactionId",
          "type": "uint256"
        }
      ],
      "name": "getAddressDetails",
      "outputs": [
        {
          "internalType": "address payable",
          "name": "owner",
          "type": "address"
        },
        {
          "internalType": "address payable",
          "name": "recipient",
          "type": "address"
        },
        {
          "internalType": "address payable",
          "name": "expectedAddress",
          "type": "address"
        }
      ],
      "payable": false,
      "stateMutability": "view",
      "type": "function"
    },
    {
      "constant": true,
      "inputs": [
        {
          "internalType": "uint256",
          "name": "_transactionId",
          "type": "uint256"
        }
      ],
      "name": "getSecretDetails",
      "outputs": [
        {
          "internalType": "string",
          "name": "secret",
          "type": "string"
        },
        {
          "internalType": "bytes32",
          "name": "secretHash",
          "type": "bytes32"
        }
      ],
      "payable": false,
      "stateMutability": "view",
      "type": "function"
    },
    {
      "constant": true,
      "inputs": [
        {
          "internalType": "uint256",
          "name": "_transactionId",
          "type": "uint256"
        }
      ],
      "name": "getStatusDetails",
      "outputs": [
        {
          "internalType": "bool",
          "name": "completed",
          "type": "bool"
        },
        {
          "internalType": "bool",
          "name": "refunded",
          "type": "bool"
        }
      ],
      "payable": false,
      "stateMutability": "view",
      "type": "function"
    },
    {
      "constant": false,
      "inputs": [
        {
          "internalType": "uint256",
          "name": "_transactionId",
          "type": "uint256"
        },
        {
          "internalType": "string",
          "name": "_secret",
          "type": "string"
        }
      ],
      "name": "withdraw",
      "outputs": [],
      "payable": false,
      "stateMutability": "nonpayable",
      "type": "function"
    },
    {
      "constant": false,
      "inputs": [
        {
          "internalType": "uint256",
          "name": "_transactionId",
          "type": "uint256"
        }
      ],
      "name": "refund",
      "outputs": [],
      "payable": false,
      "stateMutability": "nonpayable",
      "type": "function"
    }
  ],
  "bytecode": "0x60806040526000805534801561001457600080fd5b50611fff806100246000396000f3fe6080604052600436106100865760003560e01c80634723ff3d116100595780634723ff3d146102595780634c76de37146102af5780636fb300611461030d5780639ace38c2146103ee578063dc048cf21461057b57610086565b8063265465a21461008b578063278ecde1146100e15780632cdf15071461011c5780633f70c1651461019e575b600080fd5b34801561009757600080fd5b506100c4600480360360208110156100ae57600080fd5b810190808035906020019092919050505061064d565b604051808381526020018281526020019250505060405180910390f35b3480156100ed57600080fd5b5061011a6004803603602081101561010457600080fd5b8101908080359060200190929190505050610819565b005b61019c600480360360a081101561013257600080fd5b81019080803573ffffffffffffffffffffffffffffffffffffffff16906020019092919080359060200190929190803573ffffffffffffffffffffffffffffffffffffffff1690602001909291908035906020019092919080359060200190929190505050610c58565b005b3480156101aa57600080fd5b506101d7600480360360208110156101c157600080fd5b8101908080359060200190929190505050610f53565b6040518080602001838152602001828103825284818151815260200191508051906020019080838360005b8381101561021d578082015181840152602081019050610202565b50505050905090810190601f16801561024a5780820380516001836020036101000a031916815260200191505b50935050505060405180910390f35b34801561026557600080fd5b506102926004803603602081101561027c57600080fd5b81019080803590602001909291905050506111bb565b604051808381526020018281526020019250505060405180910390f35b3480156102bb57600080fd5b506102e8600480360360208110156102d257600080fd5b8101908080359060200190929190505050611387565b6040518083151515158152602001821515151581526020019250505060405180910390f35b34801561031957600080fd5b506103466004803603602081101561033057600080fd5b810190808035906020019092919050505061156d565b604051808473ffffffffffffffffffffffffffffffffffffffff1673ffffffffffffffffffffffffffffffffffffffff1681526020018373ffffffffffffffffffffffffffffffffffffffff1673ffffffffffffffffffffffffffffffffffffffff1681526020018273ffffffffffffffffffffffffffffffffffffffff1673ffffffffffffffffffffffffffffffffffffffff168152602001935050505060405180910390f35b3480156103fa57600080fd5b506104276004803603602081101561041157600080fd5b81019080803590602001909291905050506117b6565b604051808d81526020018c81526020018b81526020018a73ffffffffffffffffffffffffffffffffffffffff1673ffffffffffffffffffffffffffffffffffffffff1681526020018973ffffffffffffffffffffffffffffffffffffffff1673ffffffffffffffffffffffffffffffffffffffff1681526020018873ffffffffffffffffffffffffffffffffffffffff1673ffffffffffffffffffffffffffffffffffffffff168152602001878152602001868152602001806020018581526020018415151515815260200183151515158152602001828103825286818151815260200191508051906020019080838360005b8381101561053557808201518184015260208101905061051a565b50505050905090810190601f1680156105625780820380516001836020036101000a031916815260200191505b509d505050505050505050505050505060405180910390f35b34801561058757600080fd5b5061064b6004803603604081101561059e57600080fd5b8101908080359060200190929190803590602001906401000000008111156105c557600080fd5b8201836020820111156105d757600080fd5b803590602001918460018302840111640100000000831117156105f957600080fd5b91908080601f016020809104026020016040519081016040528093929190818152602001838380828437600081840152601f19601f820116905080830192505050505050509192919290505050611928565b005b6000803373ffffffffffffffffffffffffffffffffffffffff166001600085815260200190815260200160002060030160009054906101000a900473ffffffffffffffffffffffffffffffffffffffff1673ffffffffffffffffffffffffffffffffffffffff16148061072157503373ffffffffffffffffffffffffffffffffffffffff166001600085815260200190815260200160002060040160009054906101000a900473ffffffffffffffffffffffffffffffffffffffff1673ffffffffffffffffffffffffffffffffffffffff16145b8061078d57503373ffffffffffffffffffffffffffffffffffffffff166001600085815260200190815260200160002060050160009054906101000a900473ffffffffffffffffffffffffffffffffffffffff1673ffffffffffffffffffffffffffffffffffffffff16145b6107e2576040517f08c379a000000000000000000000000000000000000000000000000000000000815260040180806020018281038252602b815260200180611f53602b913960400191505060405180910390fd5b6001600084815260200190815260200160002060060154600160008581526020019081526020016000206007015491509150915091565b3373ffffffffffffffffffffffffffffffffffffffff166001600083815260200190815260200160002060030160009054906101000a900473ffffffffffffffffffffffffffffffffffffffff1673ffffffffffffffffffffffffffffffffffffffff16146108f0576040517f08c379a00000000000000000000000000000000000000000000000000000000081526004018080602001828103825260168152602001807f596f7520617265206e6f7420417574686f72697365640000000000000000000081525060200191505060405180910390fd5b6000151560016000838152602001908152602001600020600a0160009054906101000a900460ff16151514610970576040517f08c379a000000000000000000000000000000000000000000000000000000000815260040180806020018281038252602c815260200180611f7e602c913960400191505060405180910390fd5b6000151560016000838152602001908152602001600020600a0160019054906101000a900460ff16151514610a0d576040517f08c379a000000000000000000000000000000000000000000000000000000000815260040180806020018281038252601c8152602001807f5472616e73616374696f6e20616c726561647920726566756e6465640000000081525060200191505060405180910390fd5b6000600160008381526020019081526020016000206001015411610a99576040517f08c379a00000000000000000000000000000000000000000000000000000000081526004018080602001828103825260108152602001807f4e6f7420656e6f7567682066756e64730000000000000000000000000000000081525060200191505060405180910390fd5b42600160008381526020019081526020016000206007015460016000848152602001908152602001600020600601540110610b3c576040517f08c379a00000000000000000000000000000000000000000000000000000000081526004018080602001828103825260208152602001807f546f6f204561726c7920666f7220696e6974696174696e6720526566756e647381525060200191505060405180910390fd5b6001600082815260200190815260200160002060030160009054906101000a900473ffffffffffffffffffffffffffffffffffffffff1673ffffffffffffffffffffffffffffffffffffffff166108fc60016000848152602001908152602001600020600101549081150290604051600060405180830381858888f19350505050158015610bce573d6000803e3d6000fd5b50600060016000838152602001908152602001600020600101819055506001806000838152602001908152602001600020600a0160016101000a81548160ff0219169083151502179055507fbc97d926f16cbde49503267e90a7387affb1e0ba13e81f48bcce47803bbb52106001604051808215151515815260200191505060405180910390a150565b60003411610cce576040517f08c379a000000000000000000000000000000000000000000000000000000000815260040180806020018281038252600d8152602001807f4e6f206d6f6e65792053656e740000000000000000000000000000000000000081525060200191505060405180910390fd5b60405180610180016040528060005481526020013481526020018281526020013373ffffffffffffffffffffffffffffffffffffffff1681526020018673ffffffffffffffffffffffffffffffffffffffff1681526020018473ffffffffffffffffffffffffffffffffffffffff16815260200142815260200183815260200160405180602001604052806000815250815260200185815260200160001515815260200160001515815250600160008054815260200190815260200160002060008201518160000155602082015181600101556040820151816002015560608201518160030160006101000a81548173ffffffffffffffffffffffffffffffffffffffff021916908373ffffffffffffffffffffffffffffffffffffffff16021790555060808201518160040160006101000a81548173ffffffffffffffffffffffffffffffffffffffff021916908373ffffffffffffffffffffffffffffffffffffffff16021790555060a08201518160050160006101000a81548173ffffffffffffffffffffffffffffffffffffffff021916908373ffffffffffffffffffffffffffffffffffffffff16021790555060c0820151816006015560e08201518160070155610100820151816008019080519060200190610eb1929190611e2d565b50610120820151816009015561014082015181600a0160006101000a81548160ff02191690831515021790555061016082015181600a0160016101000a81548160ff0219169083151502179055509050507fa5c0e5d7d1adf8b31bfb34b85bd4e331990de7e35ad13af203a4b3847300a2406000546040518082815260200191505060405180910390a160008081548092919060010191905055505050505050565b606060003373ffffffffffffffffffffffffffffffffffffffff166001600085815260200190815260200160002060030160009054906101000a900473ffffffffffffffffffffffffffffffffffffffff1673ffffffffffffffffffffffffffffffffffffffff16148061102857503373ffffffffffffffffffffffffffffffffffffffff166001600085815260200190815260200160002060040160009054906101000a900473ffffffffffffffffffffffffffffffffffffffff1673ffffffffffffffffffffffffffffffffffffffff16145b8061109457503373ffffffffffffffffffffffffffffffffffffffff166001600085815260200190815260200160002060050160009054906101000a900473ffffffffffffffffffffffffffffffffffffffff1673ffffffffffffffffffffffffffffffffffffffff16145b6110e9576040517f08c379a000000000000000000000000000000000000000000000000000000000815260040180806020018281038252602b815260200180611f53602b913960400191505060405180910390fd5b600160008481526020019081526020016000206008016001600085815260200190815260200160002060090154818054600181600116156101000203166002900480601f0160208091040260200160405190810160405280929190818152602001828054600181600116156101000203166002900480156111ab5780601f10611180576101008083540402835291602001916111ab565b820191906000526020600020905b81548152906001019060200180831161118e57829003601f168201915b5050505050915091509150915091565b6000803373ffffffffffffffffffffffffffffffffffffffff166001600085815260200190815260200160002060030160009054906101000a900473ffffffffffffffffffffffffffffffffffffffff1673ffffffffffffffffffffffffffffffffffffffff16148061128f57503373ffffffffffffffffffffffffffffffffffffffff166001600085815260200190815260200160002060040160009054906101000a900473ffffffffffffffffffffffffffffffffffffffff1673ffffffffffffffffffffffffffffffffffffffff16145b806112fb57503373ffffffffffffffffffffffffffffffffffffffff166001600085815260200190815260200160002060050160009054906101000a900473ffffffffffffffffffffffffffffffffffffffff1673ffffffffffffffffffffffffffffffffffffffff16145b611350576040517f08c379a000000000000000000000000000000000000000000000000000000000815260040180806020018281038252602b815260200180611f53602b913960400191505060405180910390fd5b6001600084815260200190815260200160002060010154600160008581526020019081526020016000206002015491509150915091565b6000803373ffffffffffffffffffffffffffffffffffffffff166001600085815260200190815260200160002060030160009054906101000a900473ffffffffffffffffffffffffffffffffffffffff1673ffffffffffffffffffffffffffffffffffffffff16148061145b57503373ffffffffffffffffffffffffffffffffffffffff166001600085815260200190815260200160002060040160009054906101000a900473ffffffffffffffffffffffffffffffffffffffff1673ffffffffffffffffffffffffffffffffffffffff16145b806114c757503373ffffffffffffffffffffffffffffffffffffffff166001600085815260200190815260200160002060050160009054906101000a900473ffffffffffffffffffffffffffffffffffffffff1673ffffffffffffffffffffffffffffffffffffffff16145b61151c576040517f08c379a000000000000000000000000000000000000000000000000000000000815260040180806020018281038252602b815260200180611f53602b913960400191505060405180910390fd5b60016000848152602001908152602001600020600a0160009054906101000a900460ff1660016000858152602001908152602001600020600a0160019054906101000a900460ff1691509150915091565b60008060003373ffffffffffffffffffffffffffffffffffffffff166001600086815260200190815260200160002060030160009054906101000a900473ffffffffffffffffffffffffffffffffffffffff1673ffffffffffffffffffffffffffffffffffffffff16148061164357503373ffffffffffffffffffffffffffffffffffffffff166001600086815260200190815260200160002060040160009054906101000a900473ffffffffffffffffffffffffffffffffffffffff1673ffffffffffffffffffffffffffffffffffffffff16145b806116af57503373ffffffffffffffffffffffffffffffffffffffff166001600086815260200190815260200160002060050160009054906101000a900473ffffffffffffffffffffffffffffffffffffffff1673ffffffffffffffffffffffffffffffffffffffff16145b611704576040517f08c379a000000000000000000000000000000000000000000000000000000000815260040180806020018281038252602b815260200180611f53602b913960400191505060405180910390fd5b6001600085815260200190815260200160002060030160009054906101000a900473ffffffffffffffffffffffffffffffffffffffff166001600086815260200190815260200160002060040160009054906101000a900473ffffffffffffffffffffffffffffffffffffffff166001600087815260200190815260200160002060050160009054906101000a900473ffffffffffffffffffffffffffffffffffffffff169250925092509193909250565b60016020528060005260406000206000915090508060000154908060010154908060020154908060030160009054906101000a900473ffffffffffffffffffffffffffffffffffffffff16908060040160009054906101000a900473ffffffffffffffffffffffffffffffffffffffff16908060050160009054906101000a900473ffffffffffffffffffffffffffffffffffffffff1690806006015490806007015490806008018054600181600116156101000203166002900480601f0160208091040260200160405190810160405280929190818152602001828054600181600116156101000203166002900480156118f25780601f106118c7576101008083540402835291602001916118f2565b820191906000526020600020905b8154815290600101906020018083116118d557829003601f168201915b50505050509080600901549080600a0160009054906101000a900460ff169080600a0160019054906101000a900460ff1690508c565b600054821061199f576040517f08c379a00000000000000000000000000000000000000000000000000000000081526004018080602001828103825260168152602001807f496e76616c6964205472616e73616374696f6e2049640000000000000000000081525060200191505060405180910390fd5b6001600083815260200190815260200160002060040160009054906101000a900473ffffffffffffffffffffffffffffffffffffffff1673ffffffffffffffffffffffffffffffffffffffff163373ffffffffffffffffffffffffffffffffffffffff161480611a7057506001600083815260200190815260200160002060050160009054906101000a900473ffffffffffffffffffffffffffffffffffffffff1673ffffffffffffffffffffffffffffffffffffffff163373ffffffffffffffffffffffffffffffffffffffff16145b611ae2576040517f08c379a00000000000000000000000000000000000000000000000000000000081526004018080602001828103825260168152602001807f596f7520617265206e6f7420417574686f72697365640000000000000000000081525060200191505060405180910390fd5b6000151560016000848152602001908152602001600020600a0160009054906101000a900460ff16151514611b62576040517f08c379a000000000000000000000000000000000000000000000000000000000815260040180806020018281038252602c815260200180611f7e602c913960400191505060405180910390fd5b4260016000848152602001908152602001600020600701546001600085815260200190815260200160002060060154011015611be9576040517f08c379a0000000000000000000000000000000000000000000000000000000008152600401808060200182810382526021815260200180611faa6021913960400191505060405180910390fd5b6001600083815260200190815260200160002060090154816040516020018082805190602001908083835b60208310611c375780518252602082019150602081019050602083039250611c14565b6001836020036101000a0380198251168184511680821785525050505050509050019150506040516020818303038152906040528051906020012014611ce5576040517f08c379a00000000000000000000000000000000000000000000000000000000081526004018080602001828103825260108152602001807f57726f6e6720536563726574204b65790000000000000000000000000000000081525060200191505060405180910390fd5b80600160008481526020019081526020016000206008019080519060200190611d0f929190611ead565b506001600083815260200190815260200160002060040160009054906101000a900473ffffffffffffffffffffffffffffffffffffffff1673ffffffffffffffffffffffffffffffffffffffff166108fc60016000858152602001908152602001600020600101549081150290604051600060405180830381858888f19350505050158015611da2573d6000803e3d6000fd5b506001806000848152602001908152602001600020600a0160006101000a81548160ff021916908315150217905550600060016000848152602001908152602001600020600101819055507f3054657d3abf70005d12ae4cbf5b072c366e5b2170d6672e86fd3d7b0f3c96f56001604051808215151515815260200191505060405180910390a15050565b828054600181600116156101000203166002900490600052602060002090601f016020900481019282601f10611e6e57805160ff1916838001178555611e9c565b82800160010185558215611e9c579182015b82811115611e9b578251825591602001919060010190611e80565b5b509050611ea99190611f2d565b5090565b828054600181600116156101000203166002900490600052602060002090601f016020900481019282601f10611eee57805160ff1916838001178555611f1c565b82800160010185558215611f1c579182015b82811115611f1b578251825591602001919060010190611f00565b5b509050611f299190611f2d565b5090565b611f4f91905b80821115611f4b576000816000905550600101611f33565b5090565b9056fe596f7520617265206e6f7420417574686f72697a656420746f20676574207468652044657461696c7320215472616e73616374696f6e20616c726561647920636f6d706c65746564207375636365737366756c6c7920214e6f7720796f752063616e206f6e6c792061736b20666f7220526566756e64732ea265627a7a72315820ef84926e3f7bfbb52da6f103977ac1de5edac4cc204122375ea7ffce36e7241264736f6c63430005100032",
  "source": "pragma solidity >=0.4.25 <0.7.0;\r\n\r\ncontract HTLC {\r\n\tstruct transaction {\r\n\t\tuint transactionId;\r\n\t\tuint amountFunded;\r\n\t\tuint amountExpected;\r\n\t\taddress payable owner;\r\n\t\taddress payable recipient;\r\n\t\taddress payable expectedAddress;\r\n\t\tuint startTime;\r\n\t\tuint lockTime;\r\n\t\tstring secret; \r\n\t\tbytes32 secretHash;\r\n\t\tbool completed;\r\n\t\tbool refunded;\r\n\t}\r\n\t\r\n\tuint currentTransactionId = 0;\r\n\tmapping(uint => transaction) public transactions;\r\n\tevent fundReceived(uint _currentTransactionId);\r\n\tevent transactionCompleted(bool _completed);\r\n\tevent transactionRefunded(bool _refunded);\r\n\r\n\tfunction sendFunds(address payable _recipient, bytes32 _secretHash, address payable _expectedAddress, uint _lockTime, uint _amountExpected) public payable {\r\n\t\trequire(msg.value>0,\"No money Sent\");\r\n        transactions[currentTransactionId] = transaction(currentTransactionId, msg.value, _amountExpected, msg.sender, _recipient, _expectedAddress, block.timestamp, _lockTime , \"\" , _secretHash, false, false);\r\n        emit fundReceived(currentTransactionId);\r\n        currentTransactionId++;\r\n\t}\r\n\r\n\tfunction getAmountDetails(uint _transactionId) public view returns (uint amountFunded, uint amountExpected) {\r\n\t\trequire(transactions[_transactionId].owner == msg.sender || transactions[_transactionId].recipient == msg.sender || transactions[_transactionId].expectedAddress == msg.sender,\"You are not Authorized to get the Details !\" );\r\n\t\treturn(transactions[_transactionId].amountFunded, transactions[_transactionId].amountExpected );\r\n\t}\r\n\t\r\n\tfunction getTimeLockDetails(uint _transactionId) public view returns (uint startTime, uint lockTime) {\r\n\t\trequire(transactions[_transactionId].owner == msg.sender || transactions[_transactionId].recipient == msg.sender || transactions[_transactionId].expectedAddress == msg.sender,\"You are not Authorized to get the Details !\" );\r\n\t\treturn(transactions[_transactionId].startTime, transactions[_transactionId].lockTime);\r\n\t}\r\n\t\r\n\tfunction getAddressDetails(uint _transactionId) public view returns (address payable owner, address payable recipient, address payable expectedAddress) {\r\n\t\trequire(transactions[_transactionId].owner == msg.sender || transactions[_transactionId].recipient == msg.sender || transactions[_transactionId].expectedAddress == msg.sender,\"You are not Authorized to get the Details !\" );\r\n\t\treturn(transactions[_transactionId].owner, transactions[_transactionId].recipient, transactions[_transactionId].expectedAddress);\r\n\t}\r\n\t\r\n\tfunction getSecretDetails(uint _transactionId) public view returns (string memory secret, bytes32 secretHash) {\r\n\t\trequire(transactions[_transactionId].owner == msg.sender || transactions[_transactionId].recipient == msg.sender || transactions[_transactionId].expectedAddress == msg.sender,\"You are not Authorized to get the Details !\" );\r\n\t\treturn(transactions[_transactionId].secret, transactions[_transactionId].secretHash);\r\n\t}\r\n\t\r\n\tfunction getStatusDetails(uint _transactionId) public view returns (bool completed, bool refunded) {\r\n\t\trequire(transactions[_transactionId].owner == msg.sender || transactions[_transactionId].recipient == msg.sender || transactions[_transactionId].expectedAddress == msg.sender,\"You are not Authorized to get the Details !\" );\r\n\t\treturn(transactions[_transactionId].completed, transactions[_transactionId].refunded);\r\n\t}\r\n\t\r\n\tfunction withdraw(uint _transactionId, string memory _secret) public {\r\n\t\trequire(_transactionId < currentTransactionId, \"Invalid Transaction Id\");\r\n\t\trequire(msg.sender == transactions[_transactionId].recipient || msg.sender == transactions[_transactionId].expectedAddress, \"You are not Authorised\");\r\n        require(transactions[_transactionId].completed==false,\"Transaction already completed successfully !\");\r\n        require(transactions[_transactionId].startTime + transactions[_transactionId].lockTime >= now ,\"Now you can only ask for Refunds.\");\r\n\t\trequire(keccak256(abi.encodePacked(_secret)) == transactions[_transactionId].secretHash, 'Wrong Secret Key');\r\n\t\t\r\n\t\ttransactions[_transactionId].secret = _secret;\r\n        transactions[_transactionId].recipient.transfer(transactions[_transactionId].amountFunded);\r\n        transactions[_transactionId].completed = true;\r\n        transactions[_transactionId].amountFunded = 0;\r\n\r\n\t\temit transactionCompleted(true);\r\n\t} \r\n\r\n\tfunction refund(uint _transactionId) public { \r\n\t\trequire(transactions[_transactionId].owner==msg.sender, \"You are not Authorised\");\r\n        require(transactions[_transactionId].completed==false,\"Transaction already completed successfully !\");\r\n        require(transactions[_transactionId].refunded==false,\"Transaction already refunded\");\r\n        require(transactions[_transactionId].amountFunded > 0,\"Not enough funds\");\r\n        require(transactions[_transactionId].startTime + transactions[_transactionId].lockTime < now ,\"Too Early for initiating Refunds\");\r\n        \r\n\t\ttransactions[_transactionId].owner.transfer(transactions[_transactionId].amountFunded);\r\n        transactions[_transactionId].amountFunded = 0;\r\n        transactions[_transactionId].refunded = true;\r\n\t\t\r\n\t\temit transactionRefunded(true);\r\n\t}\r\n}",
  "sourcePath": "C:/Users/jain/Desktop/BLockchain Stuff/HTLC/contracts/HTLC.sol",
  "compiler": {
    "name": "solc",
    "version": "0.5.16+commit.9c3226ce.Emscripten.clang"
  },
  "schemaVersion": "3.3.3",
  "updatedAt": "2021-02-24T11:29:09.206Z",
  "networkType": "ethereum",
  "devdoc": {
    "methods": {}
  },
  "userdoc": {
    "methods": {}
  }
}